:020000040800F2
:10000000486C002065030008CB35000871330008F8
:10001000C935000879060008D15A00080000000020
:10002000000000000000000000000000A502000821
:100030006D0800080000000001030008C539000831
:100040007F0300087F0300087F0300087F03000888
:100050007F0300087F0300087F0300087F03000878
:100060007F0300087F0300087F0300087F03000868
:100070007F030008B10700087F030008BD070008E0
:100080007F0300087F0300087F0300087F03000848
:100090007D0600087F0300087F0300087F03000837
:1000A0007F0300087F0300087F0300087F03000828
:1000B000993A00087F0300087F0300087F030008C7
:1000C0007F0300087F0300087F0300087F03000808
:1000D0007F0300087F0300087F0300087F030008F8
:1000E0007F0300087F0300087F0300087F030008E8
:1000F0007F0300087F0300087F0300087F030008D8
:100100007F0300087F0300087F0300087F030008C7
:100110007D3B00087F0300087F0300087F03000881
:100120007F0300087F0300087F0300087F030008A7
:100130007F03000800000000000000007F030008AB
:100140007F0300087F0300087F030008CD35000807
:100150007F0300087F0300087F0300087F03000877
:100160007F0300087F0300087F0300087F03000867
:100170007F0300087F0300087F03000800000000E1
:10018000000000007F0300080000000000000000E5
:100190007F03000800000000000000007F0300084B
:1001A0000000000000000000000000007F030008C5
:1001B0007F0300087F0300087F0300087F03000817
:1001C0007F03000800F002F800F05CF80AA090E855
:1001D000000C82448344AAF10107DA4501D100F002
:1001E00051F8AFF2090EBAE80F0013F0010F18BF73
:1001F000FB1A43F001031847247600004476000000
:100200000A444FF0000C10F8013B13F0070408BF3C
:1002100010F8014B1D1108BF10F8015B641E05D0DA
:1002200010F8016B641E01F8016BF9D113F0080F8F
:100230001EBF10F8014BAD1C0C1B09D16D1E58BF21
:1002400001F801CBFAD505E014F8016B01F8016B58
:100250006D1EF9D59142D6D37047000000230024CB
:1002600000250026103A28BF78C1FBD8520728BFC6
:1002700030C148BF0B6070471FB507F066FA1FBD5D
:1002800010B510BD00F0A6F91146FFF7F5FF05F017
:10029000A9FC00F0C4F903B4FFF7F2FF03BC00F0BF
:1002A000CBF900002C4B19680868B0E8F04F80F3D8
:1002B0000988BFF36F8F4FF0000080F311887047FB
:1002C0000000000008480068006880F308884FF0CC
:1002D000000080F3148862B661B6BFF34F8FBFF39E
:1002E0006F8F00DF00BF00BF08ED00E0DFF80C00FB
:1002F000016841F470010160704700BF88ED00E0C3
:10030000EFF30980BFF36F8F134B1A681EF0100FC5
:1003100008BF20ED108A20E9F04F106009B44FF0BB
:10032000500080F31188BFF34F8FBFF36F8F06F03B
:1003300085F94FF0000080F3118809BC196808683E
:10034000B0E8F04F1EF0100F08BFB0EC108A80F339
:100350000988BFF36F8F70472C010020EFF30580F1
:10036000704700000948804709480047FEE7FEE75C
:10037000FEE7FEE7FEE7FEE7FEE7FEE7FEE7FEE755
:1003800004480549054A064B70470000893A0008B1
:10039000C501000848600020486C00204864002027
:1003A0004864002053EA020C00F069802DE9F04B0C
:1003B0004FF00006002B1FBFB3FA83F503FA05F4D4
:1003C00024FA05F65E4012BF1643B2FA82F502FA2D
:1003D00005F4C5F120051EBF22FA05FC44EA0C0411
:1003E000203556EA044C4FEA144418BF641C4FF001
:1003F00000084FF00009904271EB030C39D300293B
:1004000019BFB1FA81F701FA07F6B0FA80F700FADE
:1004100007F6C7F120071EBF20FA07FC46EA0C06C4
:100420002037B6FBF4FCA7EB0507103F07F01F0BC6
:10043000CBF120060CFA0BFB2CFA06F644BFB346B0
:100440000026202FA4BF5E464FF0000B5BEA060C8F
:1004500008BF4FF0010B19EB0B09ABFB027C48EB1B
:100460000608C01B06FB02CC0BFB03CC71EB0C0196
:10047000C1E70B46024641464846BDE8F08B13B53E
:100480004FF000004FF00001AFF30080BDE81C40CA
:100490007047032A40F2308010F0030C00F0158002
:1004A00011F8013BBCF1020F624498BF11F801CB77
:1004B00000F8013B38BF11F8013BA2F1040298BFDC
:1004C00000F801CB38BF00F8013B11F0030300F046
:1004D0002580083AC0F0088051F8043B083A51F8EA
:1004E00004CBA0E80810F5E7121D5CBF51F8043BEF
:1004F00040F8043BAFF30080D20724BF11F8013B62
:1005000011F801CB48BF11F8012B24BF00F8013BC3
:1005100000F801CB48BF00F8012B704710B5203A16
:10052000C0F00B80B1E81850203AA0E81850B1E8AC
:100530001850A0E81850BFF4F5AF5FEA027C24BF62
:10054000B1E81850A0E8185044BF18C918C0BDE859
:1005500010405FEA827C24BF51F8043B40F8043B22
:1005600008BF7047D20728BF31F8023B48BF11F8D7
:10057000012B28BF20F8023B48BF00F8012B704731
:100580004FF0000200B5134694469646203922BF2C
:10059000A0E80C50A0E80C50B1F12001BFF4F7AF77
:1005A000090728BFA0E80C5048BF0CC05DF804EB59
:1005B000890028BF40F8042B08BF704748BF20F8C7
:1005C000022B11F0804F18BF00F8012B70477047C5
:1005D00070477047754600F02BF8AE460500694637
:1005E000534620F00700854618B020B5FFF7C8FE37
:1005F000BDE820404FF000064FF000074FF0000824
:100600004FF0000B21F00701AC46ACE8C009ACE8A4
:10061000C009ACE8C009ACE8C0098D46704710B508
:100620000446AFF300802046BDE81040FFF733BE1C
:1006300000487047E45F002001491820ABBEFEE788
:100640002600020070470000084810B50068C16825
:1006500041F01001C160FF220549044802F03AFE52
:10066000034904483839086010BD00001004002018
:1006700098050020E8030020FEE70000014800F094
:1006800074BA0000E803002000B58BB000200121FF
:10069000CDE906010590009001900290039004902E
:1006A0000E20CDE9081069460A4800F05DF908B14E
:1006B00000F0DDF80221074800F0DBF808B100F097
:1006C000D6F8044800F050FC002801D000F0CFF824
:1006D0000BB000BDE803002070B5124C0020154699
:1006E000C4E90110E060C4E904030123211D20686E
:1006F00000F0D1F8002813D002232A46211D2068DB
:1007000000F0C9F800280BD004232A46211D2068D8
:1007100000F0C1F8002803D0BDE8704000F0A7B891
:1007200070BD000060050020002070470020704769
:1007300010B500220449054803F016FE0449034899
:1007400003F005FE002010BDF01300201407002068
:10075000F00B002010B50146034803F0F8FD0248F5
:1007600003F0CEFD002010BD1407002000207047CC
:10077000DFED0D0AB1EE041A10B520EE200ADFED10
:100780000B0A60EE200A80EE810A10EE100A06F0D5
:100790006BFF41EC100B05F0AFF9BDE8104051ECD8
:1007A000100B06F027BD000000000C420000FA44C8
:1007B000014800F067BC000058040020014800F028
:1007C00061BC0000B804002001681823CAB2103AC6
:1007D000B2FBF3F2054B6FF30901032A9B5CC3657F
:1007E00000D9091D8165084670470000CC770008D4
:1007F00010B5014600208B698A6A4FF0C07453B16E
:10080000B3F5005F15D072B1012A0CD0022A0AD0CC
:10081000032A09D104E01AB1012A06D0022A03D121
:10082000C96AC90100D5012010BDC96AA142FAD028
:1008300010BD002AF7D0012AF2D0022AF3D0032AF1
:10084000F3D010BD30B50468256825F480252560F7
:10085000046863608368402B036803D09960006874
:10086000C26030BD9A600068C16030BD704772B62A
:10087000FEE790F82020012A07D0022A05D0416A1D
:1008800041F48021416201207047006842690A43B7
:10089000426100207047F0B590F820500468A468C9
:1008A000012D05D0022D03D0416A41F4802157E08B
:1008B00014F0406F01D1E5004FD5C4F30164012568
:1008C000A5401D608D684FF4C0739DB1CE6835435F
:1008D0004E6845EAC605066803EB0417F5514FF468
:1008E000C275076805EB04150E697E51097D012963
:1008F00005D009E00E88CD6845EA4655EBE701686A
:100900004E5946F480764E511179D579567941EA9F
:10091000056195792D0445EA062529434FF4C676ED
:10092000056806EB0416A9511178D57841EA0561EE
:10093000957852782D0445EA022211434FF4C4758C
:10094000026805EB04155151006803EB041142588D
:1009500042F0010242500020F0BD416A41F4001112
:1009600041620120F0BD000010B590F82020012A5E
:1009700007D0022A05D0416A41F48021416201205A
:1009800010BD3B48D0F8002242F00102C0F800221E
:10099000D0F8002222F47C52C0F80022D0F80022C5
:1009A0004B6A42EA0322C0F800220A7D02F01F03CC
:1009B00001229A40D0F81C329343C0F81C32CB6914
:1009C000B3B9D0F80C329343C0F80C328C894B6821
:1009D00064F31F434C6900EBC404C4F840320C8933
:1009E0000B6864F31F434C6900EBC404C4F8443241
:1009F000CB69012B16D1D0F80C321343C0F80C325E
:100A00000C884B6864F31F434C6900EBC404C4F8C2
:100A100040320C89CB6864F31F434C6900EBC4047B
:100A2000C4F844328B69002BD0F804320ED0134343
:100A3000C0F804320B69002BD0F8143208D01343ED
:100A4000C0F81432096A012904D008E09343EFE7A3
:100A50009343F5E7D0F81C121143C0F81C12D0F8EC
:100A6000001221F00101C0F80012002010BD0000AA
:100A700000640040704770B590F82040012C05D00C
:100A8000022C03D0416A41F4802128E0046809B3B4
:100A90002469A40720D04FF4D874056804EB01142E
:100AA0002D5915F00405956005682D591AD0ED08EB
:100AB000556005682C5904F00204D4604FF4DA74D0
:100AC000056804EB01142E5906F00F06082E0CD30E
:100AD00008250DE0E468DCE7416A41F40011416259
:100AE000012070BD6D0D1560E3E72D5905F00F0570
:100AF000156105682D59C5F30725956105682C59C1
:100B0000240C54614FF4DC72046802EB0112A45807
:100B10001C700468A458240A5C700468A458240C4F
:100B20009C700468A258120EDA704FF4DE720468EA
:100B300002EB0112A4581C710468A458240A5C71C9
:100B40000468A458240C9C710468A258120EDA712F
:100B5000006829B1016941F020010161002070BDE8
:100B6000C16841F02001C160F8E72DE9F05F05465A
:100B7000006800244669D0F804908768D0F80CB06B
:100B8000D0F810A0D0F81880F10748D0F90714D099
:100B900001218160B80703D5284600F012FA0CE065
:100BA000780702D54FF4006407E0380702D54FF408
:100BB000805402E0284600F003FAF80516D52968AB
:100BC0004FF480708860B80503D5284600F0FBF923
:100BD0000CE0780502D544F4005407E0380502D54E
:100BE00044F4804402E0284600F0ECF9F80316D5FE
:100BF00029684FF480308860B80303D5284600F098
:100C0000E4F90CE0780302D544F4004407E038032B
:100C100002D544F4803402E0284600F0D5F93007CC
:100C200007D55FEACB6004D52968102044F400742E
:100C3000C86070074FF0080707D55FEA0B7004D54E
:100C40002868C760284600F059F9B00706D528681B
:100C5000C068800702D0284600F052F9700607D518
:100C60005FEACA6004D52968102044F480640861F2
:100C7000B00607D55FEA0A7004D5286807612846E0
:100C800000F06EF9F00606D528680069800702D0EA
:100C9000284600F066F9B00308D55FEAC96005D5BB
:100CA000296810204860284600F05CF9F00307D559
:100CB0005FEA097004D528684760284600F086F985
:100CC000300446D55FEA497040D5F00504D55FEAA7
:100CD000C87001D044F00104B00504D55FEA887003
:100CE00001D544F00204700504D55FEA487001D5CF
:100CF00044F00404300529D518F0700F26D008F010
:100D00007000402815D006DC102809D020280AD011
:100D1000302816D10AE050280ED0602811D10EE0FC
:100D200044F008040DE044F010040AE044F020040C
:100D300007E044F0400404E044F0800401E044F49F
:100D400080742868816921F070018161296804201C
:100D50004860002C05D0686A204368622846FFF787
:100D600089FEBDE8F09F70B5040003D094F8200020
:100D700010B104E0012070BD204600F081F8206829
:100D8000016841F00101016000F0FCFB0546052609
:100D900004E000F0F7FB401B0A2811D820684068E7
:100DA000C007F6D02068016821F00201016000F060
:100DB000E9FB05460BE000F0E5FB401B0A2806D9DD
:100DC000606A40F40030606284F82060D2E72068F6
:100DD00040688007EFD4207E0128206801683DD05C
:100DE00021F080010160607E01282068016838D010
:100DF00021F040010160A07E01282068016833D005
:100E000021F020010160E07E0128206801682ED0D9
:100E100041F010010160207F01282068016829D07D
:100E200021F008010160607F01282068016824D05A
:100E300021F004010160D4E902010843D4E904125D
:100E4000114308436168491E08432168C8610020B6
:100E50006062012084F82000002070BD41F0800114
:100E6000C0E741F04001C5E741F02001CAE721F0A9
:100E70001001CFE741F00801D4E741F00401D9E7C0
:100E800010B586B0044614216846FFF779FB18496F
:100E90002068884229D117480021026842F0007278
:100EA0000260006800F00070059012481038026877
:100EB00042F002020260006800F0020005904FF468
:100EC000407000900220CDE9010103200390092029
:100ED00004906946084800F059FA00220A211420BB
:100EE00000F0EEFB142000F0DDFB06B010BD0000AA
:100EF0000064004040380240000402407047000097
:100F00001CB50021009101910068124988421BD153
:100F1000114C6B4604F11C0200212068FFF7ABFD69
:100F2000E1690E4BC1F30312002000BFC0EBC00407
:100F300003EB84046478944207D1C0EBC00003EB58
:100F400080006A4602F078FC1CBD401C0328EDDBE3
:100F50001CBD00000064004060050020AC060020BD
:100F6000704770477047000070B5044690F8200045
:100F7000012804D0606A40F40020606218E002207A
:100F800084F820002068016821F00101016000F070
:100F9000F9FA05460EE000BF00F0F4FA401B0A28FB
:100FA00008D9606A40F400306062052084F82000AF
:100FB000012070BD20684068C007EDD1606270BD3F
:100FC00070477047704770477047704770472DE90A
:100FD000F0410446876D00F0D5FA064694F83500D6
:100FE0000025022806D08020606584F83450012056
:100FF000BDE8F0812068016821F0160101602068D9
:10100000416921F080014161206C08B9A06C20B1D8
:101010002068016821F0080101602068016821F062
:10102000010101600CE000F0ADFA801B052807D932
:1010300020206065032084F8350084F83450D7E719
:1010400020680068C007EED194F85C103F2088400B
:10105000B860012084F8350084F834500020C7E7D8
:1010600090F83510022903D0802141650120704796
:10107000052180F835100068016821F00101016048
:10108000002070472DE9F84304464FF00009CDF8E1
:10109000009063484FF41651A56D0068B0FBF1F75E
:1010A0002E6894F85C10082000FA01F131420FD04C
:1010B00021680A6852070BD50A6822F004020A6008
:1010C00094F85C108840A860606D40F00100606595
:1010D00094F85C104FF0010808FA01F0304208D093
:1010E00021684969090604D5A860606D40F00200D6
:1010F000606594F85C1004208840304208D0216874
:101100000968890704D5A860606D40F00400606537
:1011100094F85C1010208840304218D0216809688B
:10112000090714D5A86020680168490304D5006840
:10113000000308D5A16C07E00168C90503D4016864
:1011400021F008010160216C09B12046884794F81C
:101150005C1020208840304231D021680968C906DF
:101160002DD5A86094F8350005282068016806D0C0
:10117000490347D5006800031DD4616C1CE021F0D1
:10118000160101602068416921F080014161206CF5
:1011900008B9A06C20B12068016821F00801016045
:1011A00094F85C103F208840A86084F8358084F86B
:1011B0003490216D1FE0E16B09B120468847606DD6
:1011C00000282BD0606DC00714D0052084F83500AE
:1011D0002068016821F0010101600098401C009026
:1011E000B84203D820680068C007F6D184F835807B
:1011F00084F83490E16C002910D001B02046BDE89D
:10120000F04308470168C905D5D4016821F01001F1
:10121000016084F8358084F83490CCE7BDE8F88329
:10122000200000202DE9F041044600F0ABF906460D
:101230005CB1022084F83500002584F83450206821
:10124000016821F0010101600DE00120BDE8F0819D
:1012500000F098F9801B052805D92020606503203F
:1012600084F83500F2E720680068C007F0D12268F2
:10127000116820480140D4E901031843D4E903363A
:101280003343184363691843A3691843E369184358
:10129000236A18430843616A042903D1D4E90B1374
:1012A00019430843106020684069666A20F007010E
:1012B00030460E43012704280CD1A06A0643E06A99
:1012C00040B12046FFF794FA20B14020606584F8D1
:1012D0003570BAE7206846612046FFF775FA94F842
:1012E0005C203F2191408160656584F83570002065
:1012F000ACE700003F8010F02DE9F0410446866D18
:1013000090F83400002501280DD0012084F8340025
:1013100094F835700020012F07D084F8340002259E
:101320002846BDE8F0810220FBE7022784F83570EB
:1013300060652046FFF786FA94F85C103F208840ED
:10134000B0602068016841F016010160206C20B196
:101350002068016841F0080101602068016841F0DF
:1013600001010160DCE7000070B5044600F00AF9F5
:101370000546601C02D004480078044400F002F9DD
:10138000401BA042FAD370BD140000202DE9F84F95
:10139000DFF8ACA10022012403254FF00F090AF168
:1013A000040BAAF1040E00BF0B6804FA02F63340E6
:1013B000B3426ED10F7907F00307012F01D0022F3E
:1013C00016D187684FEA420805FA08FC27EA0C079D
:1013D000D1F80CC00CFA08FC4CEA070CC0F808C0A5
:1013E0004768B7430E79C6F3001696403E43466001
:1013F0000E79F643B6070AD0C6684FEA420C05FAE2
:101400000CF7BE438F6807FA0CF73743C7600E79B5
:1014100006F00306022E10D1D60800EB8608D8F895
:10142000206057074FEAD76C09FA0CF7BE430F69E3
:1014300007FA0CF73743C8F8207006684FEA420CE9
:1014400005FA0CF7BE430F7907F0030707FA0CF70C
:10145000374307604E6816F4403F6BD0394E37680B
:1014600047F480473760366822F0030706F4804669
:101470000096354E07EB060CDCF8086897074FEA34
:10148000177809FA08F7BE43304FB84202D1002757
:101490001FE04FE02E4FB84201D1012719E02D4F38
:1014A000B84201D1022714E02B4FB84201D10327E3
:1014B0000FE02A4FB84201D104270AE0284FB84272
:1014C00001D1052705E0274FB84201D1062700E0EA
:1014D000072707FA08F73743CCF80878DAF80060EE
:1014E0005746D1F804C09E435FEACC2C00D51E437A
:1014F0003E60DBF800605F46D1F804C09E435FEABF
:101500008C2C00D51E433E60DEF800607746D1F893
:1015100004C09E435FEA8C3C00D51E433E60084FEA
:10152000083F3E68D1F804C09E435FEACC3C00D53A
:101530001E433E60521C102AFFF436AFBDE8F88F00
:10154000083C0140443802400030014000000240A5
:101550000004024000080240000C0240001002405B
:101560000014024000180240426921EA02030A40C6
:1015700043EA0241816170470AB181617047090401
:10158000FBE700000148806870470000140000205D
:10159000024881680278114481607047140000207D
:1015A0000B4810B5016841F400710160016841F415
:1015B00080610160016841F480710160032000F0E6
:1015C0009FF80F2000F006F800F050F8002010BD42
:1015D000003C024030B50546204887B00024016831
:1015E00041F001010160006806A900F001000090CF
:1015F00001A801F0D7F80498B0B101F0F9F8400063
:1016000017494FF08042B0FBF1F11648491E0260C5
:1016100040F2E732C0E90324C0E90114846101F01B
:1016200021FB040003D015E001F0E2F8E8E70D48E3
:1016300001F046FB04000DD11C2000F033F8102D02
:1016400007D2002229461C2000F03AF8064805601F
:1016500000E0012407B0204630BD000040380240C1
:1016600040420F0018050020180000200C4882B0EE
:10167000016841F480410160006800F480400090FE
:101680000748001F016841F0805101600068002296
:1016900000F0805000900F21901E02B000F010B8B2
:1016A00044380240002809DB00F01F02012191406C
:1016B0004009800000F1E020C0F8001170470000F0
:1016C000F0B40E4B1B680C46C3F30223C3F10705AD
:1016D000042D00D90425191D072901D2002300E09B
:1016E000DB1E012606FA05F1491E214099409E4065
:1016F000761E16403143F0BC04F0EBB90CED00E06F
:10170000064900F0070208684FF6FF03184040EA58
:101710000220034A10430860704700000CED00E00F
:101720000000FA0501220168C0F8D824002280F8E0
:10173000CC24886940F000608861486D024A1043FB
:1017400048650020704700000300001070B5164D7A
:101750000446A1B1012911D12068D0F8001E41F042
:101760000101C0F8001ED4F8E00403F008FAE07AA2
:10177000002803D0286840F00600286070BDE07A99
:1017800028B102F035F9286820F0060028602068AA
:10179000D0F8001E21F00101C0F8001ED4F8E004CA
:1017A000BDE8704003F086B910ED00E000684162CA
:1017B00000207047F0B50368586A39B19C6A4FF44D
:1017C000827600EB144400204D1E0AE040EA0240FD
:1017D00098620FE006EB8007DF59401C04EB1744CA
:1017E000C0B2A842F6D344EA02404FF4807202EB42
:1017F000810158500020F0BDD0F8E00403F09AB801
:1018000001EBC10200EB8202D0F8E004126A02F0A0
:10181000EFBF01EBC10200EB8202D0F8E004D2F886
:10182000602203F040B8D0F8E00403F085B80A065F
:1018300001F00F0101EBC10100EB810101D5143171
:1018400001E001F51571006803F05ABF70B5044658
:101850000B0601F00F0000EBC00104EB81014FF01B
:1018600001024FF0000502D54A75143103E081F8FA
:10187000555201F51571087094F89404012808D0A8
:1018800084F89424206803F05DFC84F894540020CC
:1018900070BD022070BD70B5044601F00F002279C2
:1018A000904201D9012070BD0B0601F00F0101EB40
:1018B000C10104EB81014FF001024FF0000502D598
:1018C0004A75143103E081F8555201F515718D7098
:1018D000087094F89404012808D084F894242068AF
:1018E00003F09EFD84F89454002070BD022070BD6A
:1018F00001F00F0101EBC10100EB8100D0F868029B
:1019000070472DE9F04104460F0601F00F0000EB8F
:10191000C00104EB81014FF001064FF0000502D534
:101920004E75143103E081F8555201F515710870B8
:101930008A600B714A7802B14883022B00D14D7145
:1019400094F89404012809D084F89464206803F082
:101950004BFB284684F89454BDE8F0810220FBE755
:1019600010B501F00F0404EBC40100EB8101C1E9E3
:1019700098230023C1F8683281F8553281F8544227
:10198000837901F51571012B00D1CA618279006854
:1019900003F09EFD002010BD70B504460D4601F019
:1019A0000F002179884201D9012070BD29064FF02E
:1019B00000064FF0010206D500EBC00104EB8101E7
:1019C0004A75143107E005EBC50104EB810181F88C
:1019D000556201F515718A70087094F89404012815
:1019E00007D084F89424206803F046FD280702D02D
:1019F00007E0022070BDA17904F29C42206803F048
:101A0000E3FC84F89464002070BD10B501F00F046D
:101A100004EBC40100EB8101C1E9082300238B62C0
:101A200001234B7501F8144F8379012B00D1CA6152
:101A30008279006803F04CFD002010BD2DE9FC5FA9
:101A400005680446284603F0F7FE00287DD120688B
:101A500003F01EFF002878D0D5F80808C0F30D2049
:101A6000C4F8D404206803F013FF800704D520686D
:101A7000416901F002014161206803F009FFC106DC
:101A800004F29C40009034D52068816921F0100157
:101A900081612F6A07F00F0000EBC00004EB8006A5
:101AA000C7F3434006F51576022802D0062811D068
:101AB0001AE047F6F070074216D0C7F30A1217462D
:101AC0002846F16803F0E8FEF0683844F060706979
:101AD000384408E008222846009903F0DDFE7169C9
:101AE000C7F30A10084470612068816941F0100151
:101AF0008161206803F0CCFE00034FF0080B4FF02B
:101B0000000A4FF001097CD50026206803F09FFEF3
:101B1000074674E0F80770D0F1B2206803F0B0FE19
:101B20008046C00707D005EB4611C1F8089B314637
:101B3000204601F051FD5FEA087024D505EB4611FF
:101B4000C1F808BB2068016C00E041E200EB4610E0
:101B50000191D0F8083BFE4A914205D9190403D5FA
:101B60004FF40041C0F8081B204600F028FBF8495C
:101B70000198884207D9A079012804D12068012161
:101B8000009A03F021FC5FEAC86004D505EB46111A
:101B90001020C1F8080B5FEA88701DD5686900063F
:101BA00005D5D5F8040840F48061C5F8041806EBA3
:101BB000C60004EB800090F8571200F5157001295B
:101BC00005D180F803A0F1B2204600F007FA05EB3A
:101BD00046110220C1F8080B5FEA886004D505EBC6
:101BE00046102021C0F8081B5FEA884005D505EBA8
:101BF00046104FF40051C0F8081B7F08761C002FD8
:101C000088D1206803F044FE40036ED5206803F0BD
:101C100017FE0746002666E0F80762D0F1B220689A
:101C200003F01CFE8046C00723D006F00F0209FA1D
:101C300002F0D5F834288243C5F8342805EB461065
:101C4000C0F80899A07901280FD106EBC60004EB73
:101C50008000D0E907211144016236B9606A20B9D9
:101C600020680121009A03F0AFFBF1B22046FFF794
:101C7000C7FD5FEA087003D505EB4611C1F808B946
:101C80005FEAC86004D505EB46111020C1F80809C9
:101C90005FEA486004D505EB46104021C0F80819FA
:101CA0005FEA887016D53146284603F09AFD06EBA8
:101CB000C60004EB8000C17D1430012905D180F8F5
:101CC00003A0F1B2204600F085F905EB4611022091
:101CD000C1F808095FEA086003D53146204601F0E3
:101CE000E1FC7F08761C002F96D1206803F0D0FD20
:101CF000002811DAD5F8040820F00101C5F804180D
:101D000094F8CC0401283BD0204600F03DFA20682E
:101D1000416901F000414161206803F0B9FD00050F
:101D20000BD5D5F80808C00702D0204600F070FA9D
:101D30002068416901F400614161206803F0A8FD59
:101D400000010AD52068416901F00061416194F801
:101D5000CC04E0B1204600F05BFA206803F098FD67
:101D6000C00473D5D5F8040820F00100C5F80408B4
:101D70001021206803F035FD00214FF67F322CE062
:101D800084F8CCA400212046FFF7E0FCBFE784F8EC
:101D9000CC942068406D0121C0F38300C4F8D004C6
:101DA0002046FFF7D3FCD8E705EB4110C0F808291F
:101DB000D0F8003923F40013C0F80039C0F8082B1C
:101DC000D0F8003B23F40013C0F8003BD0F8003BF0
:101DD00043F00063C0F8003B491C20798842E3D8F7
:101DE000D5F81C0840F00111C5F81C18E07B00284C
:101DF00028460DD0D0F8840840F00B01C5F88418AF
:101E0000D5F8440840F00B012846C5F844180DE009
:101E1000D0F8140842F22B010843C5F81408D5F88D
:101E2000100840F00B012846C5F81018D0F800083B
:101E300020F4FE61C5F80018A1792068009A03F02B
:101E4000C3FA2068416901F480514161206803F0C0
:101E50001FFD800415D5206803F006F9206803F003
:101E6000DEFCE07100F0BEFC0146E279206803F080
:101E700071FD204600F072F92068416901F40051BB
:101E80004161206803F004FD000707D5204600F0FB
:101E90007FF92068416901F008014161206803F081
:101EA000F7FC000616D5A86920F08001A96101267B
:101EB0000DE000BF06EBC60004EB800090F857026F
:101EC000012803D1F1B22046FFF7B1FC761C20793E
:101ED000B042EFD8206803F0DBFCC0021FD501261A
:101EE0004F4614E005EB4610D0F8000906EBC6019A
:101EF00004EB81010A7E012A08D1002806DACF7599
:101F0000F0B240F080012046FFF791FC761C20796A
:101F1000B042E7D82068416901F48011416120682E
:101F200003F0B6FC800236D501204B462BE000BF03
:101F300005EB4011D1F8001B00EBC00204EB82025C
:101F400092F85862012E1DD100291BDA02E0000030
:101F50000A30544F94F8D46401F4803106F001063D
:101F6000B1420FD182F85732A96941F08002AA61CB
:101F70006969090606D4D5F8040840F40070C5F86C
:101F8000040803E0401C21798142D1D820684169CE
:101F900001F400114161206803F07AFC400007D58C
:101FA0002046FFF729FC2068416901F0804141612A
:101FB000206803F06DFC40070AD520684568680773
:101FC00002D52046FFF72FFC206841682943416075
:101FD000BDE8FC9FD0F8E00402F001BDD0F8E004B9
:101FE00002F011BDF8B5040005D094F895042668F8
:101FF000002510B106E00120F8BD84F89454204675
:1020000000F05CF8032084F89504B6F1A04F00D1ED
:10201000A571206803F0D2F9207C8DF8000094E8C7
:102020000F0003F02FF80226B8BB0021206803F050
:1020300052FC90BB002001270DE000BF00EBC00167
:1020400004EB81014F750875C8850D76CD610D6271
:10205000401CC0B24D6221798142EFD8002011E0CE
:1020600000EBC00104EB810181F8555281F8540264
:1020700081F85852C1F85C52C1F86052401CC0B29D
:10208000C1F8645221798142EAD8207C8DF80000A1
:1020900094E80F0003F0D8F810B184F89564AAE72B
:1020A000657484F89574207B012802D12046FFF7DF
:1020B00039FB206803F0BAF80020F8BD10B59EB0D7
:1020C0000446142117A8FEF75BFA5C216846FEF768
:1020D00057FA2068B0F1A04F39D14FF48070002436
:1020E00000901594684600F0ABF808B1FEF7BFFB0E
:1020F0001848016841F001010160006817A900F06B
:1021000001001C904FF4C05017900220CDE9180434
:1021100003201A900A201B900F48FFF737F90D484B
:10212000001D016841F0800101600A481430016817
:1021300041F4804101600068002200F480401C905E
:1021400005214320FFF7BCFA4320FFF7ABFA1EB08E
:1021500010BD0000303802400000024070B5044657
:10216000C079012570B1022801D0FEF780FB294615
:10217000D4F8E00402F0B5FCD4F8E004BDE8704007
:1021800002F06ABC0025F2E7D0F8E00402F092BC4D
:10219000D0F8E00402F098BC10B5044690F894041E
:1021A00001280AD0012084F894046174206803F0A7
:1021B000C0FB002084F8940410BD022010BDD0F8AC
:1021C000E02400F29C41104602F097BC10B5044692
:1021D000006894F89414012909D0012184F894141A
:1021E000C168490609D5617B012902D005E00220BA
:1021F00010BD816B41F480318163206803F0CFFA18
:10220000206803F005F8002084F8940410BD000055
:1022100010B50446D0F8E00402F0B1FC2068D0F814
:10222000001E41F00101C0F8001EE07A002804D031
:102230000248016841F00601016010BD10ED00E0A8
:102240002DE9F84F044600260078F84D3746C007C0
:1022500008D02868A16B20F0C06008432860A06BFC
:1022600000B901262078800708D52868E16B20F0A6
:10227000C05008432860E06B00B901262078400771
:102280000ED52868216B20F4401008432860206B8D
:10229000B0F5801F01D010B102E0012600E0012757
:1022A000207800070ED52868616B20F440000843B1
:1022B0002860606BB0F5800F01D010B102E00126FC
:1022C00000E0012720784FF0000A80064FF0010B54
:1022D00063D5D6484C38016841F0805101600068F0
:1022E000DFF84C9300F080500090D9F8001041F4D2
:1022F0008071C9F80010FFF745F9804606E000BF7D
:10230000FFF740F9A0EB080002286FD8D9F80000C9
:10231000C005F5D5DFF81483A8F11C08D8F8000033
:1023200010F4407024D0B4F8401001F440718142A0
:102330001ED0D8F80010BF4A21F44071C2F800B096
:10234000C2F800A0C8F80010D8F80000C0070FD0ED
:10235000FFF718F9814607E0FFF714F9A0EB090130
:1023600041F288308142D0D8D8F800008007F3D5F8
:10237000216CAE48C1F301228438032A37D00168AA
:1023800021F4F811C0F80010D8F80010B4F840207B
:10239000C2F30B021143C8F800102078C00604D520
:1023A000A54894F85810C0F8E01120780106A34819
:1023B00005D50168E26C21F44001114301602178E8
:1023C000490605D50168A26C21F0806111430160C6
:1023D0002188C90514D50168626D21F0006111439F
:1023E0000160616DB1F1006F09D009E01DE1026883
:1023F000934B22F4F81219400A430260C4E7012704
:102400002188890505D50168626C21F0805111434E
:1024100001602188DFF82C92490509D50168226DF9
:1024200021F0005111430160206DB0F1005F04D034
:102430001EB92068B0F5006F7ED18349C1F868A04D
:10244000FFF7A0F8794E80468C3E05E0FFF79AF83A
:10245000A0EB0800022886D830680001F6D4216875
:102460007A48CA0701D0A26B1AB1890717D5E16B68
:10247000A9B901680268C1F30141491CD4E9013CD2
:1024800043EA8C1321F0004CC2F3036209EB0C41C8
:1024900041EA02610B43217D43EA01710160216839
:1024A0004A0703D5226BB2F5801F05D0090721D555
:1024B000616BB1F5800F1DD101680268C1F3014164
:1024C000491CD4E9013C43EA8C1321F0004C09EB90
:1024D0000C4194F810C0C2F3027241EA0C610B4344
:1024E00043EA027101602968A26A21F01F01521EAD
:1024F00011432960218849051AD5216DB1F1005F8A
:1025000016D101680268C1F30141491CD4E9013CBC
:1025100043EA8C13D4F80CC0C2F302724FEA5C0891
:1025200009EB084C4CEA41610B4343EA027101603C
:102530002188090511D500E01FE0D4E9011241EA24
:102540008211E268530809EB0342237C42EA0362EA
:102550001143227D41EA027101603B49C1F868B034
:10256000FFF710F8804605E0FFF70CF8A0EB080035
:10257000022874D830680001F6D5EFB3DFF8C880C0
:10258000C8F870A0FEF7FEFF304E0746843E04E018
:10259000FEF7F8FFC01B022861D83068C0438000F6
:1025A000F6D521682A484A0701D5226B1AB10907D6
:1025B0001DD5616BD9B90168D4E90623C1F3014186
:1025C000491C42EA831221F0004309EB034194F8CD
:1025D000243041EA03610A4302602968E26A6FF02D
:1025E000FF0321F4F85103EB0222114329602188F3
:1025F000C90514D5616D00E038E0B1F1006F0ED16E
:102600000168D4E9062342EA8312236AC1F3036115
:102610005C0809EB044343EA01610A430260C8F81D
:1026200070B0FEF7AFFF04461CE018E08C380240A3
:1026300000700040400E474200104742943802406C
:10264000FFFCFF0F0000FFFF0000474284380240FC
:1026500088380240FEF796FF001B022802D90320AB
:10266000BDE8F88F3068C0438000F3D40020F7E75E
:102670002DE9F0470E46050065D0DFF81481D8F843
:102680000000F7B200F00F00B04207D288F80070E7
:10269000D8F8000000F00F00B04254D128683D4C3B
:1026A000810712D5400703D5206840F4E050206030
:1026B0002878000703D5206840F460402060206837
:1026C000A96820F0F000084320602878C0072DD0CA
:1026D000304968680839012812D0022813D003282D
:1026E00011D00968890700292DDA216821F003013A
:1026F00001432160FEF746FF814641F2883A0EE031
:1027000009688903EFE709688901ECE7FEF73AFFFA
:10271000A0EB0901514502D90320BDE8F0872068EC
:10272000696800F00C00B0EB810FEFD1D8F8001011
:10273000404601F00F01B14207D90770006800F070
:102740000F00B04201D00120E7E72878400705D507
:102750002068E96820F4E0500843206028780007EA
:1027600006D52068296920F4604040EAC100206055
:1027700000F05EF82168084AC1F30311515CC840BB
:102780000649086006480068FEF724FF0020C4E7F9
:10279000003C024008380240D477000820000020A6
:1027A000180000200F2202600C4A136803F0030394
:1027B0004360136803F0F0038360136803F4E0538D
:1027C000C36012684FF4E05303EAD2020261044886
:1027D000006800F00F0008607047000008380240F1
:1027E000003C0240014800687047000020000020C3
:1027F0000448054900680968044AC1F38221515C14
:10280000C84070472000002008380240E4770008E4
:102810000448054900680968044AC1F34231515C23
:10282000C84070472000002008380240E4770008C4
:10283000224810B5006810F00C02214815D021493B
:10284000042A11D01D4C241F082A0FD00C2A0CD1A9
:102850002268236802F03F025B0221D52068C0F3A2
:102860008810A0FB010120E0084610BD2268236803
:1028700002F03F025B0205D52068C0F38810A0FB80
:10288000010104E02168C1F38811A1FB00010023CC
:10289000FDF788FD2168C1F30141491C49000AE0A8
:1028A0002168C1F38811A1FB00010023FDF77AFD27
:1028B0002168C1F30271B0FBF1F010BD083802408D
:1028C0000024F400001BB7002DE9F84F04007DD070
:1028D000DFF878B32078ABF10407C007A7F104054F
:1028E00050D0DBF800105846C1F3810101290FD008
:1028F0000168C1F38101022902D13968490207D474
:102900000068C0F38100032809D13868400206D569
:102910002868800336D560680028D8D032E0606827
:10292000B0F5803F10D0B0F5A02F286810D020F46B
:1029300080302860286820F4802028606068A0B17A
:10294000FEF720FE06460CE0286840F48030F4E7ED
:1029500040F480202860F7E7FEF714FE801B64280F
:1029600076D828688003F7D50CE0FEF70BFE064604
:1029700005E000BFFEF706FE801B6428F0D828683B
:102980008003F7D42078DFF8C89280074FF0000A60
:1029900044D5DBF80010584611F00C0F0FD0016839
:1029A000C1F38101022902D13968490207D50068C3
:1029B000C0F3810003280AD13868400207D4286890
:1029C000800715D5E068012800D111E03AE1E06800
:1029D000B0B10120C9F80000FEF7D4FD064604E0BE
:1029E000FEF7D0FD801B0228BAD828688007F7D5EB
:1029F0002868216920F0F80040EAC10028600DE055
:102A0000C9F800A0FEF7BEFD064604E0FEF7BAFDD9
:102A1000801B02281CD828688007F7D4207800077C
:102A200027D5DFF828828B48616908F16C0881B1ED
:102A300001210160FEF7A6FD064604E0FEF7A2FDB7
:102A4000801B022804D8D8F800008007F6D510E0D3
:102A500089E0C0F800A0FEF795FD064605E000BF3E
:102A6000FEF790FD801B02287DD8D8F80000800773
:102A7000F6D42078400769D574484FF00008383004
:102A80000068C0000BD471483830016841F08051B3
:102A9000016000684FF0010800F0805000906E4E19
:102AA0003068C00511D4306840F480703060FEF7A3
:102AB00069FD009006E000BFFEF764FD0099401A32
:102AC000022850D83068C005F6D5604EA068683638
:102AD00001280FD00528306810D020F001003060A8
:102AE000306820F004003060A068B8B1FEF74AFDFD
:102AF00000900FE0306840F00100F4E740F004007F
:102B00003060F7E7FEF73EFD0099411A41F2883048
:102B1000814264D830688007F4D50EE0FEF732FDBC
:102B2000009007E0FEF72EFD0099411A41F288302F
:102B3000814254D830688007F4D4B8F1000F05D032
:102B400042483830016821F080510160A069A8B383
:102B5000DBF80010C1F38101022947D00228C9F82F
:102B600060A005D000E03AE0FEF70CFD044639E035
:102B7000FEF708FD064604E0FEF704FD801B022870
:102B80002DD828688001F7D4F4E907010843E168EB
:102B9000324A490802EB0141A26841EA8211084326
:102BA000217C40EA0160217D40EA0170386001200B
:102BB000C9F86000FEF7E6FC044606E044E000BF0A
:102BC000FEF7E0FC001B022809D828688001F7D531
:102BD0003AE000BFFEF7D6FC001B022802D9032012
:102BE000BDE8F88F28688001F4D42DE00128F7D0E3
:102BF0003868E26900F48001914223D1226A00F032
:102C00003F0191421ED147F6C071626A0140B1EBAB
:102C1000821F17D1A26A4FF0FF3300F4403103EB5B
:102C20005202B1EB024F0DD194F82C2000F07061EC
:102C3000B1EB026F06D194F8301000F0E040B0EB39
:102C4000017F01D00120CBE70020C9E7083802400E
:102C500000004742800E4742007000400000FFFF26
:102C60007047704710B5040003D094F83D0010B1D0
:102C700007E0012010BD002084F83C00204600F051
:102C80001EF8022084F83D00211D206800F00AFF94
:102C9000012084F8460084F83E0084F83F0084F860
:102CA000400084F8410084F8420084F8430084F82E
:102CB000440084F8450084F83D00002010BD7047B2
:102CC00090F83D10012901D001207047022180F8C1
:102CD0003D100168CA6842F00102CA6000681149EB
:102CE000884214D0B0F1804F11D00F4988420ED0E5
:102CF0000E4988420BD00E49884208D00D498842BF
:102D000005D00D49884202D00C49884204D181681F
:102D100001F00701062903D0016841F001010160BB
:102D200000207047000001400004004000080040FF
:102D3000000C004000040140004001400018004029
:102D400070472DE9F04104460068C66805694FF0F8
:102D50000007A90713D5B10711D5F91E016101209C
:102D60002077206880698007204602D0FFF7E8FFBF
:102D700004E000F07EF8204600F07CF82777680732
:102D800016D5700714D521686FF004000861022081
:102D900020772068806910F4407F204602D0FFF73A
:102DA000CFFF04E000F065F8204600F063F82777D5
:102DB000280715D5300713D521686FF00800086182
:102DC000042020772068C0698007204602D0FFF7E2
:102DD000B7FF04E000F04DF8204600F04BF82777ED
:102DE000E80616D5F00614D521686FF010000861CA
:102DF000082020772068C06910F4407F204602D068
:102E0000FFF79EFF04E000F034F8204600F032F8AF
:102E10002777E80708D0F00706D021686FF0010097
:102E20000861204600F027F8280608D5300606D5A8
:102E300021686FF0800008612046FFF711FF6806E7
:102E400008D5700606D521686FF04000086120465D
:102E500000F018F8A8060AD5B00608D521686FF06A
:102E6000200008612046BDE8F041FFF7FABEBDE84A
:102E7000F081704770470068B0F1804F01D1FEF7D4
:102E800087BB70477047704710B5044600684069BB
:102E900094F84110C0F3C010212911D180B12068ED
:102EA000143050E8001F21F0800140E80012002A91
:102EB000F5D1A06B08B1FEF78AF8204600F036FF86
:102EC0002068406994F84210C0F38010222911D183
:102ED00080B12068143050E8001F21F0400140E824
:102EE0000012002AF5D1E06B08B1FEF770F8204619
:102EF00000F0F5FE002010BD70470000F8B5016835
:102F000004460868CA684B6910F00F0F4FF00005BF
:102F100059D003F0010602F49077374365D0C1071A
:102F200005D0D10503D5616C41F001016164410711
:102F300005D5D90703D0616C41F0020161648107B6
:102F400005D5D90703D0616C41F004016164010724
:102F500007D502F02001314303D0616C41F0080134
:102F60006164616C00293AD0800604D5900602D5D0
:102F7000204600F0E9FE20684069616CC0F38010D3
:102F8000090700D460B3204600F0A9FE206840691C
:102F9000400621D52068143050E8001F21F0400180
:102FA00040E80012002AF5D1E06BA8B16E49016536
:102FB000E06BFEF755F8002811D0E06B016D01B011
:102FC000BDE8F040084783060FD593060DD520468F
:102FD000BDE8F84000F0B8BE2046FFF78DFFF8BD11
:102FE0002046FFF789FF6564F8BD266B2023012E7C
:102FF0007DD1C6067BD5D60679D50868486800908D
:1030000048694FF00206400641D5E16B0868406808
:103010000004000CE8D0A28D8242E5D9E085C869A1
:10302000B0F5807F2DD020680C3050E8001F21F4CF
:10303000807140E80012002AF5D12068143050E871
:10304000001F21F0010140E80012002AF5D120689C
:10305000143050E8001F21F0400140E80012002A1F
:10306000F5D184F84230256320680C3050E8001F09
:1030700021F0100140E80012002AF5D1E06BFDF7C5
:10308000A6FF6663A08DE18D401A81B22AE0A08D73
:10309000E18D401A81B2E08D0028A5D00029A3D08F
:1030A00022680C3252E8000F20F4907042E80007CA
:1030B000002FF5D12068143050E8002F22F00102D3
:1030C00040E80027002FF5D184F8423025632068BE
:1030D0000C3050E8002F22F0100240E80023002BB3
:1030E000F5D166632046FFF7CEFEF8BDFFE7050683
:1030F0002BD5150629D594F841002128F5D1A068D3
:10310000B0F5805F01D12069B0B1206A411C216215
:10311000216800784860E08C401E0004000CE084C8
:10312000E3D12068C16821F08001C1602068C168D6
:1031300041F04001C160D8E7206A0088C0F3080070
:103140004860206A801C2062E5E74006CDD5500625
:10315000CBD5CA68204622F04002CA6084F84130CC
:1031600000F004F9C1E70000953B000870B50400C9
:1031700004D094F84100002510B106E0012070BD94
:1031800084F84050204600F023F8242084F84100C1
:103190002068C16821F40051C160204600F036FE6D
:1031A0002068016921F4904101612068416921F0A2
:1031B0002A0141612068C16841F40051C160656421
:1031C000202084F8410084F842006563002070BD2F
:1031D0002DE9F04F87B0064614216846FDF7D0F977
:1031E00037493068884268D136480024016841F484
:1031F00000210160006800F400200590314810387B
:10320000016841F00401016000684FF4806A00F039
:1032100004004FF00809CDF800A0CDE90490032781
:1032200002250397DFF8A0B0CDE90154D0466946E6
:103230005846FEF7ABF8A802CDE9000502AA012026
:1032400082E8810269465846FEF7A0F8204D1F48E3
:1032500047052860C5E90174C5E903486C614FF46E
:103260000038AC61C5E9074828466C62FDF7DAFF13
:1032700008B1FDF7FCFAF563AE63154D13486035F0
:103280003030E5E802074020A5E81104104845F871
:1032900014496030AC61C5E907486C62FDF7C2FFB4
:1032A00008B1FDF7E4FAB563002205213420AE63CE
:1032B000FEF706FA3420FEF7F5F907B0BDE8F08F07
:1032C000004C00404038024000080240406002408C
:1032D0005804002090F84230202B01D00220704783
:1032E00021B11AB10023036300F016BE012070471C
:1032F0007047704770B5044690F84100202801D00F
:10330000022070BD49B342B32162A284E28400204E
:103310006064212384F84130A56B114BEB63A56BEE
:10332000104B2B64A56B104BEB64A36B18652568E1
:1033300013462A1DA06BFDF7DFFF21686FF04000E8
:1033400008602068143050E8001F41F0800140E818
:103350000012002AF5D1002070BD012070BD0000D0
:10336000933C0008D53C0008A53B00087047704717
:10337000FEE70000F0B500230A24302537261F465B
:1033800011E000BFB4EB107F02D905EB107C01E027
:1033900006EB107C01F813C001EB430C00015B1C31
:1033A0008CF80170DBB29342ECD3F0BD0F4810B53E
:1033B0000D4901600221416000214FF460228160CB
:1033C000C0E903124FF480024261017641768176B2
:1033D000C17601774177FDF7C6FC002803D0BDE830
:1033E0001040FDF744BA10BD00640040E80300201F
:1033F0000D4808B5016841F4001101600068002221
:1034000000F40010009005210D20FEF759F90D2061
:10341000FEF748F9002205210F20FEF751F9BDE81B
:1034200008400F20FEF73EB93038024030B51E4D3F
:103430009DB015AC95E80F0084E80F00002115A899
:103440002D1F02F005FC194C1435E06095E80F00C3
:1034500019AD85E80F00002119A802F0F9FB124907
:1034600020611C2220316846FDF758F8002168468B
:1034700002F07AFC0C4920601C223C3107A8FDF7C1
:103480004DF8002107A802F06FFC074960601C227C
:1034900058310EA8FDF742F800210EA802F064FC96
:1034A000A0601DB030BD000058770008000000206B
:1034B00030B587B014216846FDF762F81D48002436
:1034C000016841F004010160016801F00401059107
:1034D000016841F080010160016801F080010591FF
:1034E000016841F001010160016801F001010591ED
:1034F000016841F00201016000680F4D00F0020018
:103500000590012246F201012846FEF735F8002217
:1035100010212846FEF730F846F2110000900120F5
:10352000CDE90104694628460394FDF72FFF07B053
:1035300030BD000030380240000802400C4810B591
:103540000A4901604FF4E1314160002181600C22A1
:10355000C160C0E904128161C161FFF707FE002864
:1035600003D0BDE81040FDF782B910BD004C00400B
:103570001004002010B500220F49104801F013F983
:1035800008B1FDF774F90E490C4801F024FB08B1AD
:10359000FDF76DF90B49094800F0CEFE08B1FDF7C3
:1035A00066F9064801F09AFB002803D0BDE81040F8
:1035B000FDF75DB910BD00002800002014070020B1
:1035C000F400002088000020FEE7FEE70148FEF737
:1035D00035BA0000101E00202DE9F04103680D46A9
:1035E00004461E6C03EB4511D1F8080B94F806E075
:1035F0004FF400474FF0200C04F29C42BEF1010F43
:1036000009D0DFF898E0764539D1020432D500BF01
:10361000C1F8087B3FE0224B5FEA007E04D59E4262
:1036200039D90004F4D436E05FEA806E02D5C1F8DF
:1036300008CB30E010F0280F2DD19E4201D90004B4
:10364000E6D405EBC50004EB8000D1F8101BD0F8E0
:103650007432C1F31201591AC0F8681200F51570DE
:10366000ADB903691BB1C2681144C1600FE001210B
:1036700020680AE080060AD5C1F808CB07E035B912
:10368000D4F8640218B90021184601F09DFEE9B291
:103690002046FEF7BEF80020BDE8F0810A31544F05
:1036A0000A30544F2DE9F84F0E4601EBC60100EBEE
:1036B000810481460568D4E909101434884202D98E
:1036C0000120BDE8F88F081AA168814200D208469F
:1036D000C01C870805EB46181BE000BFA0EB010AE1
:1036E000A068504500D282460AF10300870899F885
:1036F000060000901FFA8AF3F2B22846E16802F051
:103700009DF9E16801EB0A00E060616901EB0A00E4
:103710006061D8F8180980B2B84205D3D4E9040131
:10372000814201D20028D9D1D4E90401884208D8C5
:1037300006F00F0101208840D5F834188143C5F800
:1037400034180020BDE7000086B012216C4601A8A5
:10375000FCF716FF0D4800680090CC208DF814008F
:1037600088208DF8150000BF02F03CFE12220849A7
:10377000A01CFCF78EFE162269460648FFF7BAFD2C
:1037800002F050FE052002F057FAEDE754770008EA
:103790000007002010040020FEB50A4A0A4D00244C
:1037A00007CA8DE807006E46C4EBC40005EB800035
:1037B00056F824100160052100F008F8641C032C61
:1037C000F2DBFEBDEC770008AC06002070B50446C5
:1037D00000202076617160780D4600012071002084
:1037E00055212218401CC0B291710828F9D32046F7
:1037F00000F052F84FF4FA763046FDF7B5FD6078E8
:10380000012101EB00102071A571204600F044F861
:103810003046FDF7A9FD60780A2141EA00102071C9
:103820000520A071E078E071204600F035F83046C0
:10383000BDE87040FDF798BD10B5044601F00F00DB
:103840000B2810D00C2823D11078012820D1207605
:10385000002361791A46204600F027F82046BDE88B
:10386000104000F019B80B39080951884BBA0949C2
:1038700001EB400401EB800024F8023C938894792A
:103880005BBA1B04D27943EA04231343C0F8023025
:1038900010BD00000007002030B40478082301792F
:1038A000821D204630BCFCF717BF2DE9F0410446CD
:1038B00040790F461D461646B84202D02046FFF713
:1038C00085FF1320A07188205521E071032F17D0A8
:1038D000042F28D0052F11D194F902000621454369
:1038E000607801EB00102071300A20726672280E99
:1038F000A072280CE072280A20736573BDE8F0817D
:10390000627894F90200042303EB021270432271DF
:10391000020A2272607218462218401CC0B29171CD
:103920000828F9D3EAE76078052202EB001020713D
:1039300021726172DBE70178407841EA002070472C
:10394000FFF718FE054C4FF4FA7501212046FDF7EC
:103950000BFE284602F070F9F7E70000000802406D
:103960000EB5DFF858804FF0FF394A466846D8F860
:103970000C1002F081F9DDE900051028F5D1104F97
:10398000002400BF05EB8400D0F8060000EE100A0A
:10399000FCF7EEFE034605EB44000521B0F90020DC
:1039A000C4EBC40007EB80063046FFF77EFF3046CD
:1039B000FFF772FF641C032CE4DBD6E70000002055
:1039C000AC06002010B5502080F31188BFF34F8F54
:1039D000BFF36F8F03F00CFA18B104494FF0805019
:1039E0000860002080F3118810BD000004ED00E0A5
:1039F00030B593B034216846FCF7C2FD14210DA800
:103A0000FCF7BEFD1E480025016841F080510160B1
:103A1000006800F0805012901A48016841F440415B
:103A200001600068022400F44040129001200090E0
:103A3000000401908001CDE9064006200890A820EE
:103A4000CDE909040720CDE90B046846FEF73CFFE9
:103A500008B172B6FEE70DA90F2081E831004FF4DE
:103A6000A05010904FF48050119005210DA8FEF742
:103A7000FFFD002801D072B6FEE713B030BD000094
:103A800040380240007000400248016841F4700173
:103A90000160704788ED00E00148FFF752B900006F
:103AA00018050020F0B50268294C2A4D2A4E2B4FEC
:103AB0002B4B4FF0804CA04209D0604507D0A84264
:103AC00005D0B04203D0B84201D0984204D122F0D0
:103AD000700E4A6842EA0E02A0421BD0604519D01F
:103AE000A84217D0B04215D0B84213D0984211D096
:103AF0001C4DA8420ED01C4DA8420BD01B4DA84215
:103B000008D01B4DA84205D01A4DA84202D01A4D2C
:103B1000A84203D122F44075CA682A434D6922F0B5
:103B200080022A4302608A68C2620A688262A042F6
:103B300001D0984201D10969016301214161016904
:103B4000C90703D0016921F001010161F0BD000046
:103B5000000001400004004000080040000C00404C
:103B60000004014000400140004401400048014081
:103B700000180040001C00400020004010B5044820
:103B8000FFF7BCF9BDE81040014801F06BBF000031
:103B90001004002010B5806B0021C185C184FFF79F
:103BA000ABF910BD70B5846B2068406994F8411082
:103BB000C0F3C0100025212904D118B1E5842046A6
:103BC00000F0B4F82068406994F84210C0F3801007
:103BD000222904D118B1E585204600F080F8606CF8
:103BE00040F0100060642046FFF786F970BD10B504
:103BF0000146806B096809684FF00002C9052ED4A0
:103C0000C28501680C3151E8003F23F4807341E81C
:103C10000034002CF5D10168143151E8003F23F045
:103C2000010341E80034002CF5D10168143151E85A
:103C3000003F23F0400341E80034002CF5D120215F
:103C400080F84210016B012909D101680C3151E85B
:103C5000003F23F0100341E80034002CF5D142630B
:103C6000016B012902D0FFF743FB10BD818DFFF7E7
:103C70000AF910BD10B5806B01214163016B012968
:103C800002D0FFF736FB10BD818D4908FFF7FBF826
:103C900010BD10B50146806B09680968C90516D4C6
:103CA0000021C1840168143151E8002F22F0800204
:103CB00041E80023002BF5D101680C3151E8002FB9
:103CC00042F0400241E80023002BF5D110BDFFF780
:103CD0004DFB10BD10B5806BFFF749FB10BD0168AF
:103CE0000C3151E8002F22F4907241E80023002BA0
:103CF000F5D10168143151E8002F22F0010241E8AA
:103D00000023002BF5D1016B012909D101680C3189
:103D100051E8002F22F0100241E80023002BF5D1DA
:103D2000202180F8421000210163704701680C31A6
:103D300051E8002F22F0C00241E80023002BF5D10A
:103D4000202180F84110704708B590F842102229D0
:103D500001D0022008BD82684FF480539A4201D1FD
:103D6000016921B1816A9A421BD04AB10AE0026816
:103D7000816A5268C2F308020A80816A891C08E0DD
:103D8000026972B10268526802F07F020A70816AA9
:103D9000491C8162C18D491E0904090CC18503D0EB
:103DA0001BE002685268F1E70168CA6822F020024D
:103DB000CA600168CA6822F48072CA6001684A69F0
:103DC00022F001024A61202180F842100021416363
:103DD000026B012A03D0FFF78BFA002008BD0163B4
:103DE00001680C3151E8002F22F0100241E8002355
:103DF000002BF5D101680A68D20602D50A68496825
:103E00000091818DFFF73FF8E7E7000070B50446A9
:103E100000680169E26821F44051114301612169A0
:103E2000A068E26908436169114308432168CA68D0
:103E300049F20C639A430243CA6020684169A2694F
:103E400021F440711143416131492068884202D018
:103E50003049884202D1FEF7DBFC01E0FEF7C8FCE6
:103E6000E2690023192164253226B2F5004F626809
:103E700028D0A0FB0101930F9200FCF793FA0146B2
:103E8000B0FBF5F06FF01802504301EB800006EB39
:103E90000010B0FBF5F000F0F002B1FBF5F002EB22
:103EA0000012B1FBF5F06FF01803584301EB8000EE
:103EB00006EB0010B0FBF5F000F00F002168104495
:103EC000886070BDA0FB010192185B41FCF76AFAA3
:103ED0000146B0FBF5F00201B1FBF5F06FF01803FD
:103EE000584301EB800006EBC000B0FBF5F000F09A
:103EF000F80002EB4002B1FBF5F0584301EB800003
:103F000006EBC000B0FBF5F000F00700D6E70000BC
:103F1000001001400014014038B5816204468285DA
:103F2000002013466064222284F84220E56B1B4A7D
:103F3000EA63E56B1A4A2A64E56B1A4AEA64E26BA3
:103F400010650A462168E06B091DFDF7D5F9206868
:103F5000016840680090206948B120680C3050E842
:103F6000001F41F4807140E80012002AF5D120685A
:103F7000143050E8001F41F0010140E80012002A0F
:103F8000F5D12068143050E8001F41F0400140E8AE
:103F90000012002AF5D1002038BD0000EF3B0008D8
:103FA000753C0008A53B00082DE9F0410C46D0F80F
:103FB000D412D0F8C82200EB8101D1F8C01229B385
:103FC00004F00F0606EB860300EB83050027AB69C0
:103FD0004BB106EBC60602EB8602D269B3FBF2F6E2
:103FE00002FB1632A2B1C1F81472D0F8D42200EB51
:103FF0008200D0F8C40203692BB1D1F8080222462E
:1040000001F5047198470020BDE8F0810320FBE72B
:1040100000231A462146AF6100F0BEFDF3E770B5FC
:104020000546D0F8D40205EB8000D0F8C04294B128
:10403000284600F090FCC4F80C02D5F8D412D4F84D
:10404000040205EB8101D1F8C412CA6804F50371BA
:104050009047002070BD032070BD000070B5224D58
:104060000446297800F0BBFB2878002600F00F00FA
:1040700000EB800004EB800086846978204600F025
:10408000AEFB687800F00F0000EB800004EB8000CE
:10409000A0F86461A978204600F0A1FBA87800F0A0
:1040A0000F0000EB800004EB80008684C684D4F807
:1040B000D40204EB8000D0F8C01299B1D0F8C40249
:1040C00040688047D4F8D40204EB8000D0F8C002E6
:1040D00000F085FFD4F8D40204EB8000C0F8C06281
:1040E000C4F8BC62002070BDA000002010B5D0F85C
:1040F000D41200EB8100D0F8C04284B1D0F8C412D1
:1041000059B194F80002FF2807D08B6894F8012277
:1041100021469847FF2084F80002002010BD0320AC
:1041200010BD00000A21018000487047A400002053
:1041300070B5064682210C4800F0E1FA05460121DF
:10414000094800F0DCFA04468121074800F0D7FA5C
:104150000DB11021A971402104B1A18000B181806D
:1041600043203080004870BDB000002070B5064686
:1041700082210D4800F0C3FA054601210A4800F0EB
:10418000BEFA04468121084800F0B9FA0DB11021A9
:10419000A9714FF4007104B1A18000B18180432066
:1041A0003080014870BD0000B000002070B50646A8
:1041B00082210C4800F0A3FA05460121094800F0CD
:1041C0009EFA04468121074800F099FA0DB11021AA
:1041D000A971402104B1A18000B1818043203080C9
:1041E000004870BDB00000202DE9F04704464FF4B0
:1041F0000775284600F0F4FE06004FF0000863D073
:104200002946FCF7BDF9D4F8D4023C4D04EB8000FC
:104210004FF01009C0F8C062C4F8BC62207C4FF4B3
:10422000007A0127F0B3402302222978204600F0CB
:10423000FEFB2878402300F00F0000EB800004EB29
:104240008000878402226978204600F0F0FB6878BD
:10425000082300F00F0000EB800004EB8000032235
:10426000A0F86471A978204601F00F0101EB8101EB
:1042700004EB8101A1F82690A97800F0D8FBA8787A
:1042800000F00F0000EB800004EB80008784C6F88C
:104290000482D4F8D402474604EB8000D0F8C4026C
:1042A000006800E018E006F5017680473761776125
:1042B00032687AB1207CF8B140236978204600F05A
:1042C000C2FB0020BDE8F087D4F8D41204EB8101D2
:1042D000C1F8C0820220F5E7534602222978204621
:1042E00000F0A5FB2878534600F00F0000EB80009B
:1042F00004EB80008784A5E75346DEE7A00000209A
:1043000010B5D0F8D41200EB8101D1F8C01259B128
:10431000027C084C002AD1F8042207D0402361789F
:1043200000F091FB002010BD032010BD4FF400737E
:10433000F5E70000A000002039B1D0F8D42200EB4E
:104340008200C0F8C4120020704703207047D0F8E4
:10435000D42200EB8200D0F8C00218B1C0F80412D9
:104360000020704703207047D0F8D43200EB830060
:10437000D0F8C00228B1C0F81022C0F808120020FE
:104380007047032070472DE9FC410646D0F8D4025F
:104390000C4606EB80000021D0F8C0728DF80010AA
:1043A000ADF804100D4637B1217811F060022FD01E
:1043B000202A4BD102E00320BDE8FC81E288F2B163
:1043C00009060DD5D0F8C40263783946D0F808C084
:1043D0001846E047E288072A00D9072239462DE02F
:1043E000607887F80002E088402800D34020C2B2FD
:1043F00087F801223946304600F058F82BE0D0F813
:10440000C40263780022866821461846B04722E03D
:10441000607830B101281ED00A2809D00B2815D1A8
:1044200010E096F89C02032810D1022201A905E0B1
:1044300096F89C02032809D101226946304600F013
:104440004FF808E096F89C02032804D02146304635
:1044500000F021F803252846AEE710B5D0F8B822C1
:1044600000245268904700B10324204610BD00206C
:10447000704700207047134610B50A46002100F02F
:10448000E2FA002010BD134610B50A46002100F0E4
:1044900083FB002010BD10B50446802100F05DFBB9
:1044A0002046BDE81040002100F057BB10B50323A3
:1044B000C0F89432C0F858211346C0F85C210A466F
:1044C000002100F0C0FA002010BD10B50521C0F891
:1044D000941200231A46194600F0B5FA002010BDC8
:1044E00010B50223C0F8943282611346C2610A46B5
:1044F000002100F051FB002010BD10B50421C0F8D0
:10450000941200231A46194600F046FB002010BD05
:1045100010B50A46024903A000F015F9004810BD85
:10452000F009002043444320436F6E666967000032
:1045300012200880004870474C00002010B50A4641
:10454000024903A000F0FFF8004810BDF009002068
:1045500043444320496E74657266616365000000E0
:1045600004200880004870474800002010B50A4623
:10457000024903A000F0E7F8004810BDF009002050
:1045800053544D6963726F656C656374726F6E69C5
:104590006373000010B50A46024903A000F0D3F887
:1045A000004810BDF009002053544D3332205669A5
:1045B000727475616C20436F6D506F7274000000EF
:1045C00010B51A2008800A480168001D0468001D03
:1045D0000068081809D008220649FEF7CBFE0549F5
:1045E000042210312046FEF7C5FE0248801E10BD91
:1045F000107AFF1F6E0000200C20088000487047D2
:1046000060000020F8B504460020ADF8000048889E
:104610000D46010A062947D006DC01290FD00229E0
:1046200012D0032962D11DE0072946D00F295DD1A0
:10463000D4F8B402C26920E0694690473BE0D4F860
:10464000B412207C0A68F7E7207C02260028D4F800
:10465000B80205D0C16A684688470146467036E010
:10466000816AF8E7C0B2062840D2DFE800F003090B
:104670000D111519D4F8B4024268B2B3207CDBE7FF
:10468000D4F8B4028268F8E7D4F8B402C268F4E758
:10469000D4F8B4020269F0E7D4F8B4024269ECE756
:1046A000D4F8B4028269E8E7207CF0B9D4F8B80203
:1046B000416B68468847014609E0207CA8B9D4F8D8
:1046C000B802016B68468847014607204870EA88AF
:1046D0008AB1BDF8000040B1824200D90246ADF86F
:1046E00000202046FFF7FCFEF8BDFFE729462046E4
:1046F000FFF7D1FEF8E72046FFF7FFFEF4E778B5B5
:104700000E4642880178002504468A4212D9ADF847
:1047100000100AE0694600F00FF84178052904D13D
:1047200081780546B14205D000256188BDF800209A
:104730009142EFD8284678BD0A8803781A440A8047
:1047400001780844704770B5002300281ED000256A
:10475000044602E06D1CEDB2641C2678002EF9D1EF
:10476000022404EB450414801278CA545B1C032213
:10477000CA5400245B1C06E0CA545B1CDAB28C5499
:10478000521CD3B2401C0278002AF5D170BD010042
:104790004FF0000004D0012901D0022901D00320EC
:1047A00070470120704778B10023C0F8B832C0F8D4
:1047B000C432C0F8D03209B1C0F8B412012180F877
:1047C0009C12027000F0CCB80320704710B5D0F8EE
:1047D000C802FDF760F8BDE81040FFF7D8BF10B57C
:1047E000D0F8C802FDF732F8BDE81040FFF7CFBFA0
:1047F0002DE9F04117460446002521B194F89C02AA
:10480000032842D04CE0D4F8941204F11400022999
:1048100035D1D0E902639E4206D9F21A8260394648
:104820002046FFF730FE0FE0B34214D140689842B3
:1048300011D3D4F8981288420DD200221146204696
:10484000FFF721FEC4F8985200231A461946204665
:1048500000F0F9F813E094F89C02032808D1D4F88A
:10486000B802C16821B1C4F8D452C1682046884753
:104870008021204600F071F92046FFF726FE94F8CB
:10488000A00268B184F8A0520AE0D4F8B8024269E4
:1048900032B1C4F8D452426920469047002800D172
:1048A0000020BDE8F08170B513460446002221B116
:1048B00094F89C02032830D03AE0D4F8941204F51E
:1048C000AA70032934D1D0E902518D420AD96A1A5B
:1048D00082600846824200D3024619462046FFF70E
:1048E000CAFD25E094F8AA0210F01F0003D00128A9
:1048F00002D0022800D0002294F89C02032808D19C
:10490000D4F8B802016921B1C4F8D4220169204663
:1049100088472046FFF7F1FD0AE0D4F8B802836922
:1049200033B1C4F8D422826920469047002800D1D0
:10493000002070BD0020704710B50024012180F8D0
:104940009C12D0F8B82222B152680179904700B188
:104950000324204610BDD0F8C802FCF7C9BF0000F0
:1049600010B5017839BB15490222C1F8E004C0F83E
:10497000C8124FF0A040086006200871CA710020DC
:1049800088714A728872C87208738873C87308463F
:10499000FDF728FB08B1FBF76AFF80210748FCF709
:1049A00005FF402200210548FCF704FF8022012179
:1049B0000248FCF7FFFE002010BD0000101E002082
:1049C0000A0601F07F01D0F8C80201EBC10100EB3B
:1049D000810001D5807D704790F85602704710B570
:1049E000D0F8D42200EB8202D2F8B82222B190F89B
:1049F0009C32032B02D004E0032010BD126A02B1E6
:104A00009047002010BD10B5D0F8D42200EB8202F0
:104A1000D2F8B82222B190F89C32032B02D004E0E5
:104A2000032010BD526A02B19047002010BD10B59E
:104A30001C461346D0F8C8022246FCF762FFBDE8C8
:104A40001040FFF7A4BE10B5D0F8C802FCF788FFED
:104A5000BDE81040FFF79BBE2DE9F041002601257F
:104A6000044680F89C52C4F894626660C4F8A4625C
:104A700080F8A062D0F8B80230B1426822B10021BB
:104A80002046904700B103260022402311462046CD
:104A9000FFF7CDFF4027A4F864513B460022802158
:104AA0002046C4F86071FFF7C2FFA5843046276234
:104AB000BDE8F08190F89C12042903D190F89D1272
:104AC00080F89C120020704710B590F89C120329C2
:104AD00005D1D0F8B81211B1C96901B188470020D9
:104AE00010BD01740020704710B5D0F8C802FDF762
:104AF00053FBBDE81040FFF74ABE70B5044600F214
:104B0000AA20054600F051F80120C4F89402B4F838
:104B1000B002C4F8980294F8AA0210F01F010AD05B
:104B200001290ED0022912D000F080012046BDE8F4
:104B3000704000F012B829462046BDE8704000F0F1
:104B4000CFB829462046BDE8704000F00FBA29468C
:104B50002046BDE8704000F059B910B5D0F8C80241
:104B6000FCF71AFFBDE81040FFF711BE10B5D0F8F2
:104B7000C802FDF72BFBBDE81040FFF708BE90F818
:104B80009C12042903D090F89C1280F89D120421F5
:104B900080F89C120020704710B5D0F8C802FCF7CE
:104BA00034FFBDE81040FFF7F2BD70B5054611F8BF
:104BB000010B2870087868704C1C2046FEF7BBFE7D
:104BC0006880A41C2046FEF7B6FEA880A01CFEF755
:104BD000B2FEE88070BD38B504460020ADF8000094
:104BE000A1B1C4F8B812D4F8D40204EB8000D0F814
:104BF000B802C16A19B168468847C4F8D002D4F82F
:104C0000D802401CC4F8D802002038BD032038BDAB
:104C100002460020D2F8B832002B02D01B681046A2
:104C2000184770472DE9F04188462B4E89780025BA
:104C300004463170012906D941462046FFF72BFC76
:104C40000320BDE8F08194F89C02022702280CD0D2
:104C500003281DD041462046FFF71DFC3178204631
:104C6000FFF7FBFB03252846EBE789B3204661608D
:104C7000FFF7CEFF050004D041462046FFF70BFCAE
:104C80001DE02046FFF739FC032084F89C02EAE788
:104C9000C1B1606888421BD0C1B22046FFF7DDFB7E
:104CA000317820466160FFF7B3FF050010D0414620
:104CB0002046FFF7F0FB21792046FFF7CEFB84F872
:104CC0009C72D0E784F89C7220466160FFF7C5FBB8
:104CD0002046FFF712FCC6E79C000020FFF746BF06
:104CE0002DE9F0410A78002512F060020CD0202A4C
:104CF00001D0402A7DD1D0F8D42200EB8202D2F834
:104D0000B8229268904731E04B78002201260A2BA6
:104D10006FD2DFE803F041666E586E08056E2D29EC
:104D2000FFF770FC67E004468888D8B9C888C8B91E
:104D30004888802816D200F07F0794F89C02032848
:104D400010D084F89E7239462046FFF7CDFE2046EB
:104D5000FFF7D3FB1FB1022084F89C024BE084F8DC
:104D60009C6248E0204644E0FFF75CFF054642E0D5
:104D7000CB88012B3DD190F89C32012B04D0022B23
:104D800002D0032B35D104E08260012200F108013A
:104D900016E00122011D13E090F89C22012A03D0A5
:104DA000022A01D0032A24D1CA88022A21D1C6604E
:104DB000D0F8A41209B10321C160022200F10C0154
:104DC000FFF78EFB17E04A88012A02D0022A03D09F
:104DD0000FE0C0F8A46216E08988090A80F8A012E2
:104DE00011E090F89C32012B08D0022B06D0032B47
:104DF00004D0FFF750FB2846BDE8F081498801291F
:104E0000F9D1C0F8A422FFF778FBF4E72DE9F041CF
:104E1000054608780C790E464FF0000810F0600047
:104E20000BD0202801D040286AD121462846FFF720
:104E30001EFBFF2800D0D8B395E07078C8B30128D6
:104E400024D003285CD195F89C02022802D00328C4
:104E500056D10CE0002C53D0802C51D0214628464E
:104E6000FFF77BFE80212846FFF777FE7BE0708806
:104E700040B93CB1802C05D0C88818B921462846D5
:104E8000FFF76BFE2846FFF738FB6CE095F89C02B5
:104E90000228DFD0032863D1708880BB600603D06E
:104EA00021462846FFF792FC2846FFF726FBBCE781
:104EB00000E00AE0C5F8D402D5F8B8028268F2B181
:104EC00031462846904780464DE095F89C020027E1
:104ED000022802D0032843D113E00CB1802C3FD12B
:104EE000200604F07F0000EB800005EB800101D577
:104EF000143101E001F5AA7102220F602CE032E0CA
:104F00002EE0200604F00F0000EB800005EB80008F
:104F100009D5808C20B304F07F0000EB800005EB06
:104F2000800614360AE0B0F86401C8B104F07F00CE
:104F300000EB800005EB800606F5AA764CB1802CCC
:104F400007D021462846FFF73BFD10B10120306015
:104F500000E03760022231462846FFF7C1FA02E03E
:104F60002846FFF798FA4046BDE8F08170B505463F
:104F7000087800240E4610F0600003D0202801D0ED
:104F8000402827D195F89C02012803D0022801D09F
:104F900003281FD1B088C1B201291AD8C1B228464E
:104FA000FFF767FAFF280CD058B9D5F8B8128A680D
:104FB0003AB1C5F8D4028A6831462846904704467B
:104FC00000E00324F088204307D12846FFF795FA34
:104FD00003E031462846FFF75EFA204670BD704771
:104FE00000487047F01B002070B50A78012302F0DA
:104FF0000F054E78AB401B4CD0F81C58012E17D033
:1050000045EA0343C0F81C3800EB4210D0F8002BEF
:1050100012040BD4D0F8002B0B890979C3F30A03CF
:105020001A4344EA81410A43C0F8002B002070BDB6
:105030009BB21D43C0F81C5800EB4210D0F8003959
:105040001B04F3D4D0F800390D890979C5F30A059A
:1050500089042B4341EA82510B432343C0F80039B2
:10506000E4E7000000800010D0F800196FF30A0197
:10507000C0F80019D0F8041841F48071C0F8041881
:105080000020704770B50D460446C2F3072104980E
:105090001E4601291BD0E06840F04000E060204639
:1050A00000F032F8C6F307210029A16B26D021F4C5
:1050B0008031A163C5F30741012907D1A16841F0FF
:1050C0000601A160A16841F02001A16070BDA16B43
:1050D00021F48031A163E1680A4A1140E160E1688E
:1050E00021F44011E160C0B2012803D1E06840F42E
:1050F0008010E060204600F007F8DBE741F48031E3
:10510000D7E70000BFFFBDFF08B500214FF0706278
:105110000091009B5B1C009393420CD80369002B09
:10512000F7DA0091016941F0010101610099491C20
:105130000091914201D9032008BD0169C907F5D149
:10514000002008BD30B54C780A78012300EB4212EC
:10515000012C2CD0D2F8004B002C0BDAD2F8004BEB
:1051600044F00064C2F8004BD2F8004B44F0804495
:10517000C2F8004BD0F83C580C7804F00F0403FA46
:1051800004F425EA0444C0F83C48D0F81C480978E7
:1051900001F00F018B4024EA0341C0F81C18D2F83B
:1051A000000B19490840C2F8000B002030BDD2F8AE
:1051B0000049002C0BDAD2F8004944F00064C2F830
:1051C0000049D2F8004944F08044C2F80049D0F8C0
:1051D0003C480D7805F00F0503FA05F5ADB2AC4378
:1051E000C0F83C48D0F81C48097801F00F018B400A
:1051F00099B28C43C0F81C48D2F800090349084012
:10520000C2F80009D1E700000078F3EF007833EC32
:10521000D0F8001E21F00301C0F8001ED0F80418D9
:1052200021F00201C0F8041800207047D0F8001ED9
:1052300021F00301C0F8001ED0F8041841F002016B
:10524000C0F80418002070472DE9F04F00250E46E5
:10525000044617462846294604EB8002C2F804118A
:10526000401C0F28F8D3C3F307405FEA000920462B
:1052700012D0806B40F40012A26308468846214693
:10528000C4F8000EC7F30720012818D00846D1F84B
:10529000001841F0030119E0D0F8040840F00202C0
:1052A000C4F80428A06B20F40012A263206840F028
:1052B00040022260206840F080022260DDE7300E6C
:1052C0000846D1F8001801D041F00101C0F80018DB
:1052D000102100F086FA00B10125204600F065FAA1
:1052E00000B101254046C4F81088C4F81488C4F8F9
:1052F0001C8800214FF0006B4FF0904E4FF67F3A24
:10530000F2B214E004EB4113D3F800C9BCF1000F72
:1053100006DA11B1C3F800E904E0C4F800B901E00D
:10532000C3F80009C3F81009C3F808A9491C8A4248
:10533000E8D8002115E000BF04EB4113D3F800CBFF
:10534000BCF1000F06DA11B1C3F800EB04E0C4F8B9
:1053500000BB01E0C3F8000BC3F8100BC3F808ABA7
:10536000491C8A42E8D8D4F8101821F48072C4F895
:105370001028A0616FF080406061C6F3074018B943
:10538000A06940F01000A061A0690A490843A0612B
:10539000C7F3074018B1A06940F00800A061B9F157
:1053A000010F03D1A06904490843A0612846BDE864
:1053B000F08F000000383C8004000040816821F03C
:1053C000010181600020704710B5036C134CA342AB
:1053D00003D9D0F8003B002B1EDB0023C0F8103BA4
:1053E000D0F8103B43F40023C0F8103BD0F8103B3A
:1053F00043F01803C0F8103BD0F8103B43F0C04313
:10540000C0F8103B012907D1C0F8142BD0F8001BBD
:1054100041F08021C0F8001B002010BD0A30544F1D
:105420004A780B78012A00EB43100BD0D0F8002B00
:1054300022F40012C0F8002B0979032914D00229A4
:1054400012D017E0D0F8002922F40012C0F8002989
:105450000979032901D002290CD1D0F8001941F0B3
:105460008051C0F8001905E0D0F8001B41F08051D0
:10547000C0F8001B002070470A784B78D1B200EBCF
:105480004110012B12D0D0F8001B002906DB2AB1F5
:10549000D0F8001B21F08041C0F8001BD0F8001BA1
:1054A00041F40011C0F8001B00207047D0F800192B
:1054B000002906DB2AB1D0F8001921F08041C0F89C
:1054C0000019D0F8001941F40011C0F80019EBE7F9
:1054D000F8B50C784F78894DE3B26FF0604600EB79
:1054E0004313012F29D0D3F8107B6FF31207C3F8B1
:1054F000107BD3F8107B2F40C3F8107B002C0C6975
:105500007DD0002C7CD08D682C44641EB4FBF5F457
:10551000A4B265430D62D3F8105B06EAC444254388
:10552000C3F8105BD3F8104B0D6AC5F312052C437A
:10553000C3F8104B012A7DD0C7E00F6927B3D3F819
:1055400010796FF31207C3F81079D3F810792F4050
:10555000C3F8107944B30F698D682F447F1EB7FBE1
:10556000F5F506EAC545D3F810693543C3F8105977
:10557000D3F810590E69C6F312063543C3F8105913
:105580000D79012D1CD027E0D3F810692E40C3F807
:105590001069D3F8105945F40025C3F81059D3F811
:1055A00010596FF3120515E00E698D68AE4200D9EF
:1055B0000D61D0F8105945F40026C0F81069D7E7FE
:1055C000D3F8105925F0C045C3F81059D3F8105935
:1055D00045F00055C3F81059012A1AD000EB4413C6
:1055E000D3F8004944F00444C3F800490C79012C75
:1055F00032D00A697AB3D0F83428097801E040E063
:1056000052E001F00F03012199400A43C0F8342809
:1056100071E0CA691AB100EB4413C3F8142909797F
:10562000012910D1D0F80818C90500EB4411D1F8B0
:10563000002900E045E002D442F0005201E042F0CF
:105640008052C1F8002900EB4410D0F8001941F055
:105650000441C0F800194EE0D0F80848E405D3F83A
:10566000004902D444F0005401E044F08054C3F8EF
:10567000004900920A8A93B20A78C96800F0DEF9FC
:1056800039E00CB18C680C618C680C62D0F8105B4E
:10569000C4F312042543C0F8105BD0F8104B44F457
:1056A0000024C0F8104B45E7D3F8104B8D68C5F3C4
:1056B00012052C43C3F8104BD3F8104B44F40024CC
:1056C00036E7CA680AB1C3F8142B097901290CD14D
:1056D000D0F80808C005D3F8000B02D440F0005001
:1056E00001E040F08050C3F8000BD3F8000B40F00D
:1056F0000440C3F8000B0020F8BD0000FFFF07E0E6
:1057000038B50022009213464D780A7842F21074A0
:1057100000EB4212012D19D0D2F8005B002D3CDACB
:10572000D2F8005B45F00065C2F8005B0A7800EB38
:105730004212D2F8005B45F08045C2F8005B009A47
:10574000521C0092A24221D9012326E0D2F800592E
:10575000002D22DAD2F8005945F00065C2F8005950
:105760000A7800EB4212D2F8005945F08045C2F8A1
:105770000059009A521C0092A242E5D80A7800EB28
:105780004212D2F80029002AF3DB06E00A7800EB87
:105790004212D2F8002B002AD1DB184638BD8168AE
:1057A00041F0010181600020704708B500214FF0F1
:1057B00070620091009B5B1C009393420AD80369BE
:1057C000002BF7DA0091102101610099491C00912A
:1057D000914201D9032008BD0169C906F5D4002012
:1057E00008BD18B500224FF070630092009C641C45
:1057F00000949C420CD80469002CF7DA0092202215
:1058000042EA811101610099491C0091994201D934
:10581000032018BD01698906F5D4002018BDD0F811
:10582000080810F0060004D0022803D0062801D092
:105830000F20704702207047406900F00100704758
:10584000D0F81818D0F81C08084080B27047D0F87B
:105850001818D0F81C080840000C704710B5D0F894
:105860001038D0F8342801F00F0400EB4110E2406A
:1058700002F00102D0F8080943EAC212104010BD3C
:1058800000EB4111D1F8081BD0F81408084070470C
:10589000416980690840704730B50346084694085E
:1058A00002F00301002203F5805303E01D6840F875
:1058B000045B521CA242F9D300290BD01C680022C1
:1058C000D50024FA05F3491E521C090400F8013BD7
:1058D000090CF5D130BD70B50446C068002520F034
:1058E000C040E060012901D079B120E0E06840F0DB
:1058F0000050E0600A20FBF737FD60690A3510F0C0
:10590000010F10D1C82DF5D30DE0E06840F08040C4
:10591000E0600A20FBF728FD60690A3510F0010FEE
:1059200001D0C82DF5D3C82D01D0002070BD0120B5
:1059300070BDD0F8002822F4FE62C0F80028D0F82C
:1059400000284FF4FE6303EA01110A43C0F800285F
:1059500000207047022A3ED1264A274B0A449A4229
:1059600001D20F2138E0254A254B0A449A4201D240
:105970000E2131E0234A244B0A449A4201D20D21E0
:105980002AE0224A224B0A449A4201D20C2123E007
:10599000204A214B0A449A4201D20B211CE01F4AA3
:1059A0001F4B0A449A4201D20A2115E01D4A1E4BA0
:1059B0000A449A420FD31D4A1D4B0A449A4201D20F
:1059C000082109E01B4A11441B4A914201D20721D8
:1059D00002E0062100E00921C26822F47052C26090
:1059E000C2684FF4705303EA81210A43C260002069
:1059F00070470000405327FF00350C00401E1BFF7E
:105A000040420F0000DC0BFF804F1200808CF9FE3B
:105A100020D6130060B6E5FE60E3160000D3CEFE8C
:105A200040771B00C05BB3FEC091210000CA91FE0D
:105A300020753800E05459FEE09C410010B5029CEE
:105A400074B9DB1C9C0800EB0230002300F5805089
:105A500004E000BF51F8042B02605B1CA342F9D3A1
:105A6000002010BD38B5044600680168C943C90666
:105A700024D40168406800902046FDF705FAE06BE9
:105A8000006840680E49C0F1FF0008700D4884426C
:105A90000CD10D49122201F1F900FAF7FAFC0B487A
:105AA00009490022F931006800F030F92046BDE8CC
:105AB00038400549FF22891FFDF70CBC38BD0000A6
:105AC00024000020100400209E0500200C0000206F
:105AD000FEE70907090E002804DB00F1E02080F84A
